:1010D300758E80758CFB758AAED2A9D28C900091E7
:0610E300740AF0D2AF22F6
:100CB20090008BE004F0A20C92D5A2B3920C20D546
:100CC20003020D57300C03020D57E0FFE4F0EFD39F
:100CD20094964003C20B22EFC39461400EEF947BC3
:100CE2004073D20B9000927420F022300B67EFD346
:100CF200941E4003C20B2290008CE0C313F0EFC39A
:100D020094104004E04480F0900092E014F0702BC4
:100D1200C20B90008CE0F4FFA3E0FD6F70379000EF
:100D220093E0FEA3E07A002400FFEA3E90008FF0F9
:100D3200A3EFF090008EEDF0D20922900092E054E1
:100D4200077012A3E0A3F090008DE0900093F09062
:050D5200008CE0A3F09D
:010D57002279
:03000B00020F4998
:100F4900C0E0C083C082C0D075D000C002C005C057
:100F590006C007120CB2900091E014F07005740AF3
:100F6900F0D20AD007D006D005D002D0D0D082D096
:040F790083D0E0320F
:1010FF009000A7EEF0A3EFF0C20D75DC4DD2DE200D
:05110F00DEFDD2B62256
:101114009000A7EEF0A3EFF0D20D75DC49D2DE20EB
:05112400DEFDD2B62241
:020F1300AD0728
:100F1500E4FCED30E0107F3F7E001211149000A933
:100F2500E02402F0800D7F157E001211149000A9B7
:100F3500E004F07F157E001210FFEDC313FD0CECED
:030F4500B408CF1E
:010F48002286
:100F7D00E4F5D875DA499000AAF0A37464F09000F6
:100F8D00AAE0FEA3E0F5EAEEF5FAD2BFE5D9541FCB
:100F9D004408F5D9E4F5F9F5E9C2DE9000A7F0A310
:040FAD007402F022B8
:100EC200AB07AA06E49000A9F07F567E011210FF3C
:100ED2007FAB1E1211147F151210FFE4FF120F13C5
:100EE2007FFF120F13AF03120F13EBF4FF120F1356
:100EF2009000A9E0FFC394385016C374389FF0E005
:100F0200131313541FFFE02FF0E0FF7E0012108531
:010F120022BC
:03003B00020DE4CF
:100DE400C0E0C0F0C083C082C0D075D000C000C0D5
:100DF4000675D840200D35B2B630B6209000ABE071
:100E040024BFF09000AAE03400F09000A774FFF52E
:100E1400F012044B45F07032C2DE802E9000ABE03D
:100E24002463F09000AAE03400F0801E9000ABE050
:100E34002422F09000AAE03401F09000A774FFF59A
:100E4400F012044B45F07002C2DE9000AAE0FEA34B
:100E5400E0F5EAEEF5FAD006D000D0D0D082D08307
:050E6400D0F0D0E032E7
:05117100121176D2917D
:081176007F017E02DEFEDFFABC
:01117E00224E
:0F115300D290121171C290121176C291021176D0
:0A11A400C290121171D29002117670
:100E6900EBF0A3EAF0A3E9F0AC071211537D017F7F
:010E79005127
:040E7A00AB07A90514
:100E7E00E4FDFAEBC4131313540124FF9290EB25F7
:100E8E00E0FB121171C2911211760DEDB408E4D28D
:100E9E0090121176D291309013E9B4010F0AEAD371
:100EAE0094C840F2C2911211767F0022C2911211A3
:030EBE00767F013B
:010EC100220E
:10101500E4FDFCD290121176D291121176EC25E006
:10102500FCA290E4334CFC121176C2911211760D9C
:06103500EDB408E4AF0475
:01103B002292
:101061009000AC120E69AF047D01120E7A9000ACB3
:10107100E0FBA3E0FAA3E0F91203CBFFE4FD120EBB
:041081007A0211A43A
:10003E009000AF120E69AF047D01120E7A120E738C
:10004E001210159000AFE0FBA3E0FAA3E0F9EF1257
:05005E0003E40211A4FF
:0100090022D4
:10094800900097ECF0A3EDF0A3EAF0A3EBF0900091
:0609580095EEF0A3EFF0A4
:10095E00C3946CEE94074029D3E09434900095E054
:10096E009408501D900098E0940C900097E094002D
:10097E00500F900099E0FAA3E0FB941FEA94004018
:10098E0003020A547C007D0AAF03AE021203F6EF97
:10099E00C454F0FB900099E0FEA3E0FF7C007D0ABA
:1009AE001203F6EB4DA3F0900097E0FEA3E0FF7C60
:1009BE00007D0A1203F6EFC454F0FB900097E0FEA0
:1009CE00A3E0FF7C007D0A1203F6EB4D90009CF035
:1009DE00C3900096E094D0900095E09407500F904D
:1009EE00009CE04480F0900096E0249480069000F5
:1009FE0096E02430F0900095E034F8F0900095E009
:100A0E00FEA3E0FF7C007D0A1203F6EFC454F0FB58
:100A1E00900095E0FEA3E0FF7C007D0A1203F6EB4A
:100A2E004D90009DF07B017A00799B7F051210613D
:100A3E007B017A00799C7F071210617B017A007925
:090A4E009D7F08121061E4FEFF17
:010A5700227C
:0B0B3500900067EBF0A3EAF0A3E9F0EA
:100B40007B017A0079707F0512003E7B017A007983
:100B5000717F0712003E7B017A0079727F081200D4
:100B60003E900070E0543FFDC4540F75F00AA4FF9E
:100B70007C00ED540F2FFFEC35F0F990006DE0FB99
:100B8000A3E0FAA3E0C98FF0120512900072E0FD15
:100B9000C4540F75F00AA4FFED540F2FFFEC35F08D
:100BA000F9900067E0FBA3E0FAA3E0C98FF012051B
:100BB00012900071E090006730E70FE0FBA3E0FACD
:100BC000A3E0F9740775F06C800DE0FBA3E0FAA3D5
:100BD000E0F9740775F0D01204DA900071E0541F48
:100BE000FDC4540F75F00AA4FF7C00ED540F2FFFD5
:100BF000EC35F0F990006AE0FBA3E0FAA3E0C98FBE
:070C0000F0120512E4FEFFF3
:010C070022CA
:100A58009000A0ECF0A3EDF0A3EAF0A3EBF0900077
:060A68009EEEF0A3EFF08A
:100A6E00D39418EE9400501C9000A1E0943B90009B
:100A7E00A0E09400500E9000A3E0943B9000A2E002
:100A8E0094004003020B3190009EE0FEA3E0FF7C39
:100A9E00007D0A1203F6EFC454F0FB90009EE0FEB8
:100AAE00A3E0FF7C007D0A1203F6EB4D9000A4F04C
:100ABE009000A0E0FEA3E0FF7C007D0A1203F6EF9B
:100ACE00C454F0FB9000A0E0FEA3E0FF7C007D0A82
:100ADE001203F6EB4D9000A5F09000A2E0FEA3E00D
:100AEE00FF7C007D0A1203F6EFC454F0FB9000A2C7
:100AFE00E0FEA3E0FF7C007D0A1203F6EB4D9000B2
:100B0E00A6F07B017A0079A67F021210617B017A32
:100B1E000079A57F031210617B017A0079A47F040E
:060B2E00121061E4FEFF5D
:010B3400229E
:0B0C0800900073EBF0A3EAF0A3E9F00A
:100C13007B017A00797E7F0212003E7B017A0079A4
:100C23007D7F0312003E7B017A00797C7F041200F2
:100C33003E90007CE0543FFDC4540F75F00AA4FFBE
:100C43007C00ED540F2FFFEC35F0F9900073E0FBBF
:100C5300A3E0FAA3E0C98FF012051290007DE054DF
:100C63007FFDC4540F75F00AA4FFED540F2FFFEC62
:100C730035F0F9900076E0FBA3E0FAA3E0C98FF02A
:100C830012051290007EE0547FFDC4540F75F00AE4
:100C9300A4FFED540F2FFFEC35F0F9900079E0FB42
:0E0CA300A3E0FAA3E0C98FF0120512E4FEFFF1
:010CB1002220
:03003800C295224C
:0311AE00D29522B5
:0311B100C29522C2
:1010E900759850E4F587758920758DFD758BFDD24E
:0610F9008ED2ACD2AF2242
:0C118C00C2AC8F993099FDC299C2AC2210
:100FB1009000B2EBF0A3EAF0A3E9F09000B2E0FBFD
:100FC100A3E0FAA3E0F91203CB60179000B2A3E407
:100FD10075F001120461A9F0FA1203CBFF12118C12
:030FE10080D92292
:06000300AE0712118C2271
:03000000020D5896
:0C0D5800787FE4F6D8FD758121020D9F24
:0C1198006C6F616420636F6465200A00C6
:10103C004F005800010200010200010200010200F1
:02104C0001029F
:100FE4007F0A7E001210851210E97BFF7A1179982E
:100FF4001200D1120F7D1200381211B51211BA125B
:1010040000091210D31211627F0A7E00121085802B
:01101400FEDD
:0F11620075D7F4E4F5D6438E1043AF04D2AF2215
:0300630002000A8E
:01000A0032C3
:03000B000211B42B
:0111B4003208
:10112900E4FDFCC3ED9FEC9E500A0000000DBD00DC
:04113900010C80EF36
:01113D00228F
:10108500E4FDFCC3ED9FEC9E5012000000790B7B44
:0C109500BEDBFED9FC0DBD00010C80E7A5
:0110A100222C
:10000E00E4FDFCC3ED9FEC9E501F00009000B57404
:10001E002BF079067BCBDBFED9FC9000B5E014F01B
:09002E0070F40DBD00010C80DA34
:0100370022A6
:0111B5002217
:0111B6002216
:0111B7002215
:0111B8002214
:0111B9002213
:0D117F00E4F5C7F5C5F5C675C380F5C422BB
:1010BB0075C78275C5018FC4EEF5C375C65A75C663
:0710CB00A500AFC212117F66
:0110D20022FB
:1010A20075C78275C5028FC4EEF5C3AF058FC275D1
:0910B200C65A75C6A50002117FA3
:10113E0075C78275C5038FC4EEF5C375C65A75C6DD
:05114E00A50002117F65
:10104E004400879EFF0CE348007F00200014001E22
:02105E00002B65
:0B079500900028EBF0A3EAF0A3E9F0CD
:1007A000900028E0FBA3E0FAA3E0F9120477FF90A1
:1007B000002EE5F0F0A3EFF09000021204A2FF90EB
:1007C0000030E5F0F0A3EFF0E4A3F0A3F0900036E2
:1007D0007479F0A374B9F090002BE0FBA3E0FAA3C6
:1007E000E0F9120477FF900038E5F0F0A3EFF09005
:1007F00000021204A2FF90003AE5F0F0A3EFF0909F
:1008000000041204A2FF90003CE5F0F0A3EFF0908A
:1008100000061204A2FF90003EE5F0F0A3EFF0E422
:10082000900034F0A3F0900036E0FEA3E0FF9000CB
:1008300033E02FF0900032E03EF0900030E0FCA377
:10084000E0FDC4F8540FC868FFECC454F048FE90B3
:100850000039E02FFF900038E03EFE900032E0FAD1
:10086000A3E0FBED2BFDEC3A6EFCEF6DFD9000304C
:10087000E0FEA3E07805CEC313CE13D8F9FF9000B5
:100880003BE02FFF90003AE03E6CFEEF6DFF9000E2
:100890002FE02FF090002EE03EF0E0FCA3E0FDC43E
:1008A000F8540FC868FFECC454F048FE90003DE0D7
:1008B0002FFF90003CE03EFE900032E0FAA3E0FB08
:1008C000ED2BFDEC3A6EFCEF6DFD90002EE0FEA3EB
:1008D000E07805CEC313CE13D8F9FF90003FE02F88
:1008E000FF90003EE03E6CFEEF6DFF900031E02F88
:1008F000F0900030E03EF0900035E004F07006909B
:100900000034E004F0900034E07004A3E064206060
:100910000302082690002EE0F9A3E0FF900028E0F3
:10092000FBA3E0FAA3E0C98FF0120512900030E0BB
:10093000FEA3E0FF900028E0FBA3E0FAA3E0F9901B
:080940000002EE8FF002053108
:0B05D100900040EBF0A3EAF0A3E9F07B
:1005DC00900040E0FBA3E0FAA3E0F9120477FF904F
:1005EC000046E5F0F0A3EFF09000021204A2FF9099
:1005FC000048E5F0F0A3EFF0A37437F0A37420F0FB
:10060C0090004E7479F0A374B9F0900043E0FBA312
:10061C00E0FAA3E0F9120477FF900050E5F0F0A3A4
:10062C00EFF09000021204A2FF900052E5F0F0A34C
:10063C00EFF09000041204A2FF900054E5F0F0A338
:10064C00EFF09000061204A2FF900056E5F0F0A324
:10065C00EFF0E490004CF0A3F0900047E0C4F854A5
:10066C000FC868FF900046E0C454F048FE90005557
:10067C00E02FFF900054E03EFE90004AE0FCA3E027
:10068C00FD900046E0FAA3E02DFDEA3C6EFCEF6D18
:10069C00FD900046E0FEA3E07805CEC313CE13D840
:1006AC00F9FF900056E0FAA3E02FFFEA3E6CFEEF54
:1006BC006DFFC3900049E09FF0900048E09EF0A3CE
:1006CC00E0C4F8540FC868FF900048E0C454F048E8
:1006DC00FE900051E02FFF900050E03EFE90004A4B
:1006EC00E0FCA3E0FD900048E0FAA3E02DFDEA3C1D
:1006FC006EFCEF6DFD900048E0FEA3E07805CEC3E4
:10070C0013CE13D8F9FF900052E0FAA3E02FFFEAC2
:10071C003E6CFEEF6DFFC3900047E09FF0900046EB
:10072C00E09EF090004EE0FEA3E0FFC390004BE093
:10073C009FF090004AE09EF090004DE004F07006AF
:10074C0090004CE004F090004CE07004A3E06420B6
:10075C006003020665900046E0F9A3E0FF900040BC
:10076C00E0FBA3E0FAA3E0C98FF012051290004859
:10077C00E0FEA3E0FF900040E0FBA3E0FAA3E0F969
:09078C00900002EE8FF00205312D
:0111BA002212
:100D6400020FE4E493A3F8E493A34003F68001F2B2
:100D740008DFF48029E493A3F85407240CC8C33390
:100D8400C4540F4420C8834004F456800146F6DF5F
:100D9400E4800B010204081020408090103CE47EA3
:100DA400019360BCA3FF543F30E509541FFEE49354
:100DB400A360010ECF54C025E060A840B8E493A31B
:100DC400FAE493A3F8E493A3C8C582C8CAC583CA46
:100DD400F0A3C8C582C8CAC583CADFE9DEE780BEFE
:01106000008F
:1003CB00BB010689828A83E0225002E722BBFE0230
:0903DB00E32289828A83E4932263
:1003E400BB010689828A83F0225002F722BBFE01F8
:0203F400F322F2
:1003F600BC000BBE0029EF8DF084FFADF022E4CCEB
:10040600F875F008EF2FFFEE33FEEC33FCEE9DECB3
:10041600984005FCEE9DFE0FD5F0E9E4CEFD22EDF9
:10042600F8F5F0EE8420D21CFEADF075F008EF2F43
:10043600FFED33FD4007985006D5F0F222C398FD34
:050446000FD5F0EA22D1
:10044B00C5F0F8A3E028F0C5F0F8E582158270023C
:06045B001583E038F022D9
:10046100A3F8E0C5F025F0F0E5821582700215834E
:06047100E0C838F0E822AB
:10047700BB010A89828A83E0F5F0A3E02250068750
:10048700F009E71922BBFE07E3F5F009E319228912
:0B049700828A83E493F5F07401932245
:1004A200BB0110E58229F582E5833AF583E0F5F098
:1004B200A3E0225009E92582F886F008E622BBFE75
:1004C2000AE92582F8E2F5F008E222E5832AF583BB
:0804D200E993F5F0A3E9932280
:1004DA00BB010789828A8302044B500B09C5F027A6
:1004EA00F7C5F01937F722BBFE0D09F8E325F0F33B
:1004FA00C5F019E338F322F889828A8374019325B7
:08050A00F0C5F0F8E49338227B
:10051200BB010A89828A83F0E5F0A3F0225006F734
:0F05220009A7F01922BBFE06F3E5F009F3192231
:10053100F8BB0111E58229F582E5833AF583E8F0FC
:10054100E5F0A3F0225009E92582C8F608A6F022B9
:0D055100BBFE09E92582C8F2E5F008F222A0
:10006600E5082403F582E43400F583E005082290D0
:100076000000300703900003E475F00112058B02BF
:1000860003CB2000E97F2ED2008018EF540F249076
:10009600D43440D4FF30040BEF24BFB41A0050030D
:1000A6002461FFE50960021509050CE50C700205DF
:1000B6000B30070E900000E475F00112058BEF027D
:1000C60003E40200037403D2078003E4C207F508C1
:1000D6009000001205A2E4F509F50BF50CE50960A0
:1000E600077F201200A980F5750AFFC201C200C26F
:1000F60002C203C205C206C208120075FF700D30A7
:1001060007057F001200BAAF0CAE0B22B4255FC202
:10011600D5C204120075FF24D0B40A00501A75F037
:100126000A780930D50508B6FF0106C6A426F620CA
:10013600D5047002D20380D924CFB41A00EF50043C
:10014600C2E5D2040202BBD20180C6D20080C0D270
:100156000280BCD2D580BAD20580B47F201200A915
:100166002002077401B5090040F1120066FF120073
:10017600A90200E3D208D2068095120066FB12009F
:1001860066FA120066F94A4B7006798C7A037BFF91
:1001960020022EE509602A7E008E827583001205F4
:1001A6005E60060EEE650A70F0C2D5EBC0E0EAC0EE
:1001B600E0E9C0E0EE120302D0E0F9D0E0FAD0E0C8
:1001C600FB1203CBFF60AAEBC0E0EAC0E0E9C0E0A7
:1001D6001200A9D0E02401F9D0E03400FAD0E0FB07
:1001E600E50A0460DCD50AD980877BFF7A0279FEAE
:1001F600D202809C791080027908C206C208800863
:10020600D2D5790A8004790AC2D5E50A047002F5C6
:100216000AE4FAFDFEFF120066FC7B0820011312B9
:100226000066FD7B1030000A120066FE120066FFB3
:100236007B20EC3382D592D55013C3E43000069F61
:10024600FFE49EFEE42001039DFDE49CFCE4CBF864
:10025600C201EC700CCFCECDCCE824F8F870F38058
:1002660017C3EF33FFEE33FEED33FDEC33FCEB3318
:10027600FB994002FB0FD8E9EB300105F8D0E0C44A
:1002860048B201C0E00AEC4D4E4F78207B0070C2A8
:10029600EAB50A0040BCC0E0120304D0F0D0E0206A
:1002A6000104C4C0E0C4B201C0F0120092D0F0D57F
:1002B600F0EB0200E31205AB01805301FA5801513D
:1002C6004C014D4201FE4F020644020649016643B7
:0802D600020C5501F04601F095
:1002DE004501F04703AC5001552D01592E017C2BE1
:1002EE00015D23017A2003952A011548000001744F
:1002FE003F3F3F00790AA2D5200314300509B910FB
:10030E00020404B9080104A2D520060250010420FB
:10031E0002689202B509005034C0E07F2030031904
:10032E007F30A20272067205500F12035BC202C228
:10033E0006C205C2087F30800F300503E9C0E01207
:10034E0000A9300503D0E0F9D0E0B509CC3005178F
:10035E007F30B9100C1200A97F583004077F7880C7
:10036E0003B908031200A93002057F2D0200A97FF0
:10037E00202008F87F2B2006F322920280CF286ED1
:10038E00756C6C2900D2011200663001F8C201783A
:10039E000930D50108F60201152D504349581200B7
:1003AE00662403B405004001E49003A79312009A5B
:0D03BE00743A12009AD2037509040201FA84
:10055E00BB010CE58229F582E5833AF583E0225052
:10056E0006E92582F8E622BBFE06E92582F8E2229C
:0D057E00E58229F582E5833AF583E49322B6
:10058B00F8E0FBA3A3E0F925F0F0E58215827002F9
:07059B001583E0FA38F0229D
:0905A200EBF0A3EAF0A3E9F0225A
:1005AB00D083D082F8E4937012740193700DA3A3DF
:1005BB0093F8740193F5828883E4737402936860F3
:0605CB00EFA3A3A380DFF3
:00000001FF
